:100000000C942A000C9475080C949C080C94C3085A
:100010000C9447000C9447000C9447000C94470044
:100020000C9447000C9447000C9447000C94470034
:100030000C9447000C9447000C9447000C94470024
:100040000C9447000C9447000C9447000C94470014
:100050000C94470011241FBECFE5D8E0DEBFCDBF12
:1000600012E0A0E6B0E0EEECF7E202C005900D92DF
:10007000AA33B107D9F712E0AAE3B2E001C01D929A
:10008000AB34B107E1F70E945E120C94E5130C94B7
:100090000000EF92FF920F931F937B018C0120E0F1
:1000A00030E040E05FE40E94C50388238CF0C80183
:1000B000B70120E030E040E05FE40E94C1010E940F
:1000C000F5039B01AC01205030404040504806C031
:1000D000C801B7010E94F5039B01AC01B901CA0137
:1000E0001F910F91FF90EF900895A0E0B0E0EBE733
:1000F000F0E00C94AE13DC012B01FA019C919230DC
:1001000008F439C1EB018881823008F433C194309E
:1001100069F4843009F02FC111969C91119789815F
:10012000981709F428C1A1E2B1E025C1843009F48F
:1001300021C18230A9F4923009F01DC19A01AD01AC
:1001400088E0EA010990AE01E90109929E0181501F
:10015000C1F7E201898111969C918923818308C1AD
:10016000923009F407C112962D903C901397EB0141
:100170008A819B811496AD90BD90CD90DC901797AD
:10018000EC80FD800E811F819101281B390BB90184
:1001900037FF04C066277727621B730B6032710537
:1001A0000CF061C0121613066CF537014801062EDB
:1001B00004C096948794779467940A94D2F721E0C8
:1001C00030E040E050E004C0220F331F441F551FB1
:1001D0006A95D2F721503040404050402E213F21B7
:1001E00040235123211531054105510521F021E01E
:1001F00030E040E050E079018A01E628F72808293C
:1002000019293CC0232BD1F1260E371E350146019A
:10021000062E04C096948794779467940A94D2F734
:1002200021E030E040E050E004C0220F331F441FC3
:10023000551F6A95D2F721503040404050402A2146
:100240003B214C215D21211531054105510521F04E
:1002500021E030E040E050E059016A01A628B728CB
:10026000C828D9280BC0821593052CF01C01AA249C
:10027000BB24650103C0EE24FF24870111969C91E5
:10028000D20111968C91981709F445C0992339F041
:10029000A80197012A193B094C095D0906C0A6016E
:1002A00095012E193F09400B510B57FD08C01182D3
:1002B0003382228224833583468357831DC081E0A5
:1002C00081833382228288279927DC01821B930B4A
:1002D000A40BB50B84839583A683B7830DC0220F2F
:1002E000331F441F551F24833583468357838281E0
:1002F000938101979383828324813581468157813D
:10030000DA01C9010197A109B1098F5F9F4FAF4F72
:10031000BF4328F30BC0918333822282EA0CFB1C7B
:100320000C1D1D1DE482F5820683178383E0808304
:10033000248135814681578157FF1AC0C901AA27F8
:1003400097FDA095BA2F81709070A070B0705695EF
:10035000479537952795822B932BA42BB52B848318
:100360009583A683B7838281938101969383828349
:10037000DF0101C0D201CD01CDB7DEB7E2E10C94BF
:10038000CA13A0E2B0E0E7ECF1E00C94BA13698381
:100390007A838B839C832D833E834F835887E9E048
:1003A000EE2EF12CEC0EFD1ECE010196B7010E943F
:1003B000E6058E010F5E1F4FCE010596B8010E9423
:1003C000E6058A8991E089278A8BC701B801AE01C9
:1003D000475E5F4F0E9475000E941105A096E6E0FF
:1003E0000C94D613A0E2B0E0E8EFF1E00C94BA135D
:1003F00069837A838B839C832D833E834F835887C5
:10040000F9E0EF2EF12CEC0EFD1ECE010196B701A6
:100410000E94E6058E010F5E1F4FCE010596B801C2
:100420000E94E605C701B801AE01475E5F4F0E941A
:1004300075000E941105A096E6E00C94D613A0E288
:10044000B0E0E5E2F2E00C94AE1369837A838B832B
:100450009C832D833E834F835887CE010196BE0136
:10046000675F7F4F0E94E605CE010596BE016F5E75
:100470007F4F0E94E6059985923088F08989823005
:10048000C8F0943019F4823051F404C0843029F457
:10049000923081F481E291E0C6C0923049F420E0CC
:1004A0009A858A89981321E02A87CE010996BBC0D4
:1004B000823049F420E09A858A89981321E02A8BBA
:1004C000CE014196B0C02D843E844F8458886D88FB
:1004D0007E888F88988CEE24FF248701AA24BB2471
:1004E000650140E050E060E070E0E0E0F0E0C10174
:1004F00081709070892BE9F0E60CF71C081D191D1E
:100500009A01AB012A0D3B1D4C1D5D1D80E090E062
:10051000A0E0B0E0E614F7040805190520F481E036
:1005200090E0A0E0B0E0BA01A901480F591F6A1F8E
:100530007B1FAA0CBB1CCC1CDD1C97FE08C081E0F5
:1005400090E0A0E0B0E0A82AB92ACA2ADB2A3196B6
:10055000E032F10549F0660C771C881C991C569412
:10056000479437942794C3CFFA85EA892B893C892D
:100570008B859C85280F391F2E5F3F4F17C0CA01FE
:1005800081709070892B61F016950795F794E79428
:1005900080E090E0A0E0B0E8E82AF92A0A2B1B2BC3
:1005A00076956795579547952F5F3F4F77FDE7CF36
:1005B0000CC0440F551F661F771F17FD4160EE0CDE
:1005C000FF1C001F111F21503040403090E05907A0
:1005D00090E0690790E4790760F32B8F3C8FDB0193
:1005E000CA018F779070A070B07080349105A1051A
:1005F000B10561F447FD0AC0E114F10401051105DC
:1006000029F0405C5F4F6F4F7F4F40781A8EFE1786
:1006100011F081E08A8F4D8F5E8F6F8F78A383E01A
:10062000898FCE0149960E941105A096E2E10C94B3
:10063000CA13A8E1B0E0EFE1F3E00C94B6136983CC
:100640007A838B839C832D833E834F835887B9E0C5
:10065000EB2EF12CEC0EFD1ECE010196B7010E948F
:10066000E6058E010F5E1F4FCE010596B8010E9470
:10067000E6052985223008F47EC03989323010F42D
:10068000B8017CC08A859A8989278A87243011F02D
:10069000223031F4231709F06EC061E271E06EC0C0
:1006A000343039F41D861E861F86188A1C861B86E8
:1006B00004C0323021F484E08987B7015FC02B8504
:1006C0003C858B899C89281B390B3C872B87ED84C3
:1006D000FE840F851889AD88BE88CF88D88CEA142F
:1006E000FB040C051D0540F4EE0CFF1C001F111F40
:1006F000215030403C872B8720E030E040E050E044
:1007000080E090E0A0E0B0E460E070E0EA14FB0478
:100710000C051D0540F0282B392B4A2B5B2BEA18C2
:10072000FB080C091D09B695A79597958795EE0CC2
:10073000FF1C001F111F6F5F7F4F6F31710531F775
:10074000DA01C9018F779070A070B0708034910584
:10075000A105B10561F427FD0AC0E114F10401050A
:10076000110529F0205C3F4F4F4F5F4F20782D87B8
:100770003E874F87588BBE01675F7F4FCB010E943A
:1007800011056896EAE00C94D213A8E1B0E0EBEC16
:10079000F3E00C94BA1369837A838B839C832D8353
:1007A0003E834F83588789E0E82EF12CEC0EFD1E26
:1007B000CE010196B7010E94E6058E010F5E1F4F24
:1007C000CE010596B8010E94E6058985823040F089
:1007D0008989823028F0C701B8010E945E0601C0F5
:1007E0008FEF6896E6E00C94D613ACE0B0E0EBEF48
:1007F000F3E00C94BE1369837A838B839C83CE01D0
:100800000196BE016B5F7F4F0E94E6058D818230AD
:1008100061F1823050F1843021F48E81882351F1CE
:100820002EC02F81388537FD20C06E812F313105D4
:100830001CF06623F9F023C08EE190E0821B930B3D
:1008400029853A854B855C8504C056954795379533
:1008500027958A95D2F76623B1F05095409530954B
:1008600021953F4F4F4F5F4F0EC020E030E040E0FA
:1008700050E009C02FEF3FEF4FEF5FE704C020E0EB
:1008800030E040E050E8B901CA012C96E2E00C9457
:10089000DA13A8E0B0E0EFE4F4E00C94B6137B01C7
:1008A0008C01611571058105910519F482E0898338
:1008B00060C083E089838EE1C82ED12CDC82CB829C
:1008C000ED82FE820F831887C801B7010E94C2041F
:1008D000FC013197F7FF3BC0222733272E1B3F0B2C
:1008E00057016801022E04C0D694C794B794A79408
:1008F0000A94D2F740E050E060E070E081E090E0E0
:10090000A0E0B0E004C0880F991FAA1FBB1F2A9562
:10091000D2F70197A109B1098E219F21A023B1230C
:100920000097A105B10521F041E050E060E070E0E2
:100930004A295B296C297D294D835E836F837887E3
:100940008EE190E08E1B9F0B9C838B8312C03097AF
:1009500081F00E2E04C0EE0CFF1C001F111F0A9424
:10096000D2F7ED82FE820F831887CE1ADF0ADC826F
:10097000CB821A82CE0101960E9411052896EAE0E8
:100980000C94D213EF92FF920F931F937B018C0173
:1009900080E0E81680E0F80681E0080780E01807AC
:1009A00088F48FEFE816F1040105110531F028F005
:1009B00088E090E0A0E0B0E017C080E090E0A0E028
:1009C000B0E012C080E0E81680E0F80680E008079A
:1009D00081E0180728F088E190E0A0E0B0E004C0D2
:1009E00080E190E0A0E0B0E020E230E040E050E0C4
:1009F000281B390B4A0B5B0B04C016950795F7941F
:100A0000E7948A95D2F7F701E75DFE4F8081281BB6
:100A1000310941095109C9011F910F91FF90EF90D0
:100A20000895DF92EF92FF920F931F93FC01E480F1
:100A3000F58006811781D1808081823048F480E082
:100A400090E0A0E1B0E0E82AF92A0A2B1B2BA5C010
:100A5000843009F49FC0823021F4EE24FF24870102
:100A600005C0E114F1040105110519F4E0E0F0E01E
:100A700096C0628173819FEF623879070CF05BC08A
:100A800022E83FEF261B370B2A3131052CF020E0FE
:100A900030E040E050E02AC0B801A701022E04C0B7
:100AA00076956795579547950A94D2F781E090E03F
:100AB000A0E0B0E004C0880F991FAA1FBB1F2A95B1
:100AC000D2F70197A109B1098E219F21A023B1235B
:100AD0000097A105B10521F081E090E0A0E0B0E031
:100AE0009A01AB01282B392B4A2B5B2BDA01C90168
:100AF0008F779070A070B07080349105A105B1051A
:100B000039F427FF09C0205C3F4F4F4F5F4F04C0AF
:100B1000215C3F4F4F4F5F4FE0E0F0E02030A0E01E
:100B20003A07A0E04A07A0E45A0710F0E1E0F0E03D
:100B300079018A0127C06038710564F5FB01E1582D
:100B4000FF4FD801C7018F779070A070B0708034CC
:100B50009105A105B10539F4E7FE0DC080E490E0F0
:100B6000A0E0B0E004C08FE390E0A0E0B0E0E80EC9
:100B7000F91E0A1F1B1F17FF05C016950795F7944E
:100B8000E794319687E016950795F794E7948A9550
:100B9000D1F705C0EE24FF248701EFEFF0E06E2FC0
:100BA000679566276795902F9F77D794DD24D79414
:100BB0008E2F8695492F462B582F5D29B701CA01E4
:100BC0001F910F91FF90EF90DF900895FC01DB01E2
:100BD000408151812281622F6F7770E0221F22278E
:100BE000221F9381892F880F822B282F30E0991F95
:100BF0009927991F11969C93119721153105A9F5F5
:100C0000411551056105710511F482E037C082E894
:100C10009FEF13969C938E9312979A01AB0167E016
:100C2000220F331F441F551F6A95D1F783E08C9321
:100C30000DC0220F331F441F551F12968D919C919A
:100C40001397019713969C938E931297203080E010
:100C5000380780E0480780E4580758F314962D932E
:100C60003D934D935C93179708952F3F310579F489
:100C7000411551056105710519F484E08C930895BF
:100C800064FF03C081E08C9312C01C9210C02F57E8
:100C9000304013963C932E93129783E08C9387E019
:100CA000440F551F661F771F8A95D1F770641496FD
:100CB0004D935D936D937C93179708951F93DC017B
:100CC000FB019C91923008F447C08081823008F487
:100CD00043C0943051F411961C91843099F5818170
:100CE000682F70E0611B71093FC0843021F09230A1
:100CF00031F48230B9F18181882389F12DC01196B8
:100D00001C9111978230F1F081811817D9F4129655
:100D10002D913C911397828193818217930794F0D0
:100D200028173907BCF014968D919D910D90BC91B8
:100D3000A02D2481358146815781281739074A071C
:100D40005B0718F4112341F00AC082179307A40728
:100D5000B50740F4112319F061E070E005C06FEFB2
:100D60007FEF02C060E070E0CB011F910895E1E4E5
:100D7000F0E08081886080838081846080838081CE
:100D8000826080838081816080830895A895089522
:100D900087E689B9EAE2F0E080818B7F808386E88C
:100DA00080BD808180618083808188608083089598
:100DB0008CB9EBE2F0E0808186FFFDCF0895EBE295
:100DC000F0E080818823ECF78CB1089508950895B0
:100DD000882319F08130C1F40CC0E3E5F0E0808194
:100DE0008160808380818D7F808380818460808327
:100DF0000895EEE4F0E080818160808380818D7FC2
:100E000080838081846080830895882319F08130F5
:100E1000C1F40CC0E3E5F0E080818E7F80838081A7
:100E20008D7F808380818B7F80830895EEE4F0E066
:100E300080818E7F808380818D7F808380818B7F86
:100E400080830895EF92FF920F931F937A018B0195
:100E5000882319F0813099F518C0CB01BA0120E040
:100E600030E040E853E40E941F0220E030E048EC0C
:100E700052E40E94190320E030E040E85FE30E9462
:100E8000C1010E9449006CBF1AC066B577B580E009
:100E900090E00E944904A80197010E941F0220E0EF
:100EA00030E048EC52E40E94190320E030E040E8D2
:100EB0005FE30E94C1010E9449007BBD6ABD1F9192
:100EC0000F91FF90EF9008950E94E80608950E9408
:100ED0000507089590934402809343020895882360
:100EE00019F0813091F513C087E161E00E94EA08B2
:100EF000E3E5F0E080818064808380818860808386
:100F000080818F7E808380818062808308958DE2DE
:100F100061E00E94EA08AFE4B0E08C918E7F8C9390
:100F20008C9182608C93EEE4F0E080818860808315
:100F30008081806180838C918F7B8C938C91806881
:100F40008C9384E091E097BD86BD08958FB9EEE261
:100F5000F0E080818823ECF78FB1089588E160E0AC
:100F60000E94EA0889E160E00E94EA088AE161E003
:100F70000E94EA088BE160E00E94EA08EDE2F0E0FE
:100F800080818F7E80838081806280838081806485
:100F9000808308958CE080B9E6E5F0E0808184608C
:100FA00080830895E6E5F0E080818062808380811F
:100FB0008068808380818823ECF7E1E2F0E0808123
:100FC000887F8830E1F70895E6E5F0E08081806170
:100FD00080838081806880830895E6E5F0E08081E9
:100FE0008062808380818068808380818823ECF7A1
:100FF0000895880F83B9E6E5F0E0808180688083FA
:1010000080818823ECF70895880F816083B9E6E535
:10101000F0E080818F7D8083808180688083808103
:101020008823ECF7089583B9E6E5F0E080818F7DB1
:10103000808380818068808380818823ECF720E032
:1010400030E040E050E0E1E2F0E08081887F8832EB
:1010500061F02F5F3F4F4F4F5F4F203884E83807D4
:101060008EE1480780E0580781F70895E6E5F0E053
:1010700080818F7D808380818068808380818823C8
:10108000ECF783B10895EFE5F0E08081806880831C
:101090000895EFE5F0E080818F77808308958823BD
:1010A00069F4E5E5F0E08081826080838081816081
:1010B0008083EBE5F0E08081806480830895813057
:1010C00051F0813018F0823079F40AC070934A02EE
:1010D0006093490208957093460260934502089513
:1010E000709348026093470208951F920F920FB6C3
:1010F0000F9211242F933F934F935F936F937F939E
:101100008F939F93AF93BF93EF93FF93E091490227
:10111000F0914A020995FF91EF91BF91AF919F9194
:101120008F917F916F915F914F913F912F910F9090
:101130000FBE0F901F9018951F920F920FB60F922F
:1011400011242F933F934F935F936F937F938F93CC
:101150009F93AF93BF93EF93FF93E0914502F0917C
:1011600046020995FF91EF91BF91AF919F918F91A9
:101170007F916F915F914F913F912F910F900FBE93
:101180000F901F9018951F920F920FB60F92112477
:101190002F933F934F935F936F937F938F939F937F
:1011A000AF93BF93EF93FF93E0914702F091480212
:1011B0000995FF91EF91BF91AF919F918F917F9191
:1011C0006F915F914F913F912F910F900FBE0F90B4
:1011D0001F901895282F362F6AE00E943E13492F42
:1011E000822F0E943E13332321F0313009F086C054
:1011F00046C08230D1F0833020F4813009F07EC0C7
:1012000006C0833001F1843009F078C02AC0EAE3D7
:10121000F0E0208181E090E002C0880F991F4A959C
:10122000E2F78095822380830895E7E3F0E0208150
:1012300081E090E002C0880F991F4A95E2F78095FF
:10124000822380830895E4E3F0E0208181E090E050
:1012500002C0880F991F4A95E2F780958223808308
:101260000895E1E3F0E0208181E090E002C0880F82
:10127000991F4A95E2F780958223808308958230F2
:10128000B9F0833018F48130C9F505C08330E9F036
:101290008430A1F527C0EAE3F0E0208181E090E00E
:1012A00002C0880F991F4A95E2F7282B20830895E2
:1012B000E7E3F0E0208181E090E002C0880F991F11
:1012C0004A95E2F7282B20830895E4E3F0E020819B
:1012D00081E090E002C0880F991F4A95E2F7282B21
:1012E00020830895E1E3F0E0208181E090E002C0F6
:1012F000880F991F4A95E2F7282B20830895282FFD
:10130000362F6AE00E943E13492F822F0E943E131F
:10131000332321F0313009F086C046C08230D1F04D
:10132000833020F4813009F07EC006C0833001F1A3
:10133000843009F078C02AC0EBE3F0E0208181E03E
:1013400090E002C0880F991F4A95E2F780958223AA
:1013500080830895E8E3F0E0208181E090E002C01E
:10136000880F991F4A95E2F780958223808308951C
:10137000E5E3F0E0208181E090E002C0880F991F52
:101380004A95E2F78095822380830895E2E3F0E0B6
:10139000208181E090E002C0880F991F4A95E2F712
:1013A00080958223808308958230B9F0833018F4C9
:1013B0008130C9F505C08330E9F08430A1F527C03C
:1013C000EBE3F0E0208181E090E002C0880F991FFC
:1013D0004A95E2F7282B20830895E8E3F0E0208186
:1013E00081E090E002C0880F991F4A95E2F7282B10
:1013F00020830895E5E3F0E0208181E090E002C0E1
:10140000880F991F4A95E2F7282B20830895E2E37D
:10141000F0E0208181E090E002C0880F991F4A959A
:10142000E2F7282B20830895282F6AE00E943E13BC
:10143000392F822F0E943E138230A1F0833018F49E
:10144000813029F406C08330B1F08430E9F080E0C7
:10145000089589B390E002C0959587953A95E2F793
:101460008170089586B390E002C0959587953A956E
:10147000E2F78170089583B390E002C09595879557
:101480003A95E2F78170089580B390E002C0959597
:1014900087953A95E2F781700895282F6AE00E94B7
:1014A0003E13392F822F0E943E138230B9F08330D1
:1014B00018F48130C9F505C08330E9F08430A1F516
:1014C00027C0EBE3F0E0208181E090E002C0880FCC
:1014D000991F3A95E2F7282720830895E8E3F0E082
:1014E000208181E090E002C0880F991F3A95E2F7D1
:1014F000282720830895E5E3F0E0208181E090E053
:1015000002C0880F991F3A95E2F728272083089593
:10151000E2E3F0E0208181E090E002C0880F991FB3
:101520003A95E2F7282720830895282F362F6AE07E
:101530000E943E13492F822F0E943E13332321F035
:10154000313009F086C046C08230D1F0833020F4BB
:10155000813009F07EC006C0833001F1843009F08B
:1015600078C02AC0EBE3F0E0208181E090E002C087
:10157000880F991F4A95E2F780958223808308950A
:10158000E8E3F0E0208181E090E002C0880F991F3D
:101590004A95E2F78095822380830895E5E3F0E0A1
:1015A000208181E090E002C0880F991F4A95E2F700
:1015B0008095822380830895E2E3F0E0208181E03A
:1015C00090E002C0880F991F4A95E2F78095822328
:1015D000808308958230B9F0833018F48130C9F5E2
:1015E00005C08330E9F08430A1F527C0EBE3F0E0DB
:1015F000208181E090E002C0880F991F4A95E2F7B0
:10160000282B20830895E8E3F0E0208181E090E03A
:1016100002C0880F991F4A95E2F7282B208308956E
:10162000E5E3F0E0208181E090E002C0880F991F9F
:101630004A95E2F7282B20830895E2E3F0E0208129
:1016400081E090E002C0880F991F4A95E2F7282BAD
:1016500020830895E7E2F0E080818F7B80838081A2
:101660008F77808380818F7D8083E6E2F0E08081C8
:1016700081608083808182608083808184608083B8
:1016800080818062808380818068808380818064A3
:1016900080830895E7E2F0E09081907E892B80833B
:1016A00020E030E040E050E0E6E2F0E0808184FDC0
:1016B0000CC02F5F3F4F4F4F5F4F203884E83807F3
:1016C0008EE1480780E0580789F724B135B1822FB1
:1016D000932F08950F931F938EE161E00E947F097D
:1016E0008FE160E00E947F0980E260E00E947F0954
:1016F00081E260E00E947F0900E21EE4C8010197D8
:10170000F1F78EE160E00E947F098FE161E00E94C5
:101710007F0980E260E00E947F0981E260E00E9430
:101720007F09C8010197F1F78EE160E00E947F090F
:101730008FE160E00E947F0980E261E00E947F0902
:1017400081E260E00E947F09C8010197F1F78EE114
:1017500060E00E947F098FE160E00E947F0980E2E3
:1017600060E00E947F0981E261E00E947F09C80178
:101770000197F1F71F910F9108958EE161E00E94AA
:10178000EA088FE161E00E94EA0880E261E00E94DD
:10179000EA0881E261E00E94EA08089581E00E947F
:1017A0006707089581E00E946407089590E0A0E033
:1017B000B0E0BC01CD010E94490420E030E044E3E8
:1017C00053E40E94190320E030E040EA50E40E9414
:1017D0001F0220E030E040EA50E40E94F201AB0139
:1017E000BC0181E00E942207089581E00E946F07FA
:1017F00008958F929F92AF92BF92CF92DF92EF9215
:10180000FF920F931F93CF93DF93282F6AE00E94DC
:101810003E13392F822F0E943E139695882483947D
:101820008922932F96959695992493949922A32E85
:10183000A694A694A694982F9695BB24B394B92207
:10184000982F96959695CC24C394C922982F969557
:1018500096959695DD24D394D922C0E0D0E0EE246D
:10186000E394E32200EA1FE0FF24F394F8228EE0E1
:101870006E2D0E947F098FE0682D0E947F0980E114
:10188000692D0E947F0981E16A2D0E947F0985E10F
:1018900061E00E947F09C8010197F1F785E160E0EE
:1018A0000E947F098EE06F2D0E947F098FE06B2DD3
:1018B0000E947F0980E16C2D0E947F0981E16D2DDE
:1018C0000E947F0986E161E00E947F09C8010197BB
:1018D000F1F786E160E00E947F09219681E0C43F34
:1018E000D80729F6DF91CF911F910F91FF90EF90CC
:1018F000DF90CF90BF90AF909F908F9008958EE033
:1019000061E00E94EA088FE061E00E94EA0880E15D
:1019100061E00E94EA0881E161E00E94EA0886E154
:1019200061E00E94EA0885E161E00E94EA0808950A
:10193000813011F1813020F0823009F051C036C081
:1019400084E10E94140A813009F04AC020EB34E09F
:1019500040E951E0CA010197F1F721503040D1F739
:1019600084E10E94140A813009F03AC084E10E94A7
:10197000140A8130D9F336C08EE20E94140A8130F5
:1019800079F520EB34E040E951E0CA010197F1F725
:1019900021503040D1F78EE20E94140A813001F5C7
:1019A0008EE20E94140A8130D9F31CC08AE20E94A0
:1019B000140A8130A9F420EB34E040E951E0CA0177
:1019C0000197F1F721503040D1F78AE20E94140AC2
:1019D000813031F48AE20E94140A8130D9F302C0C6
:1019E00080E0089581E00895813051F0813018F051
:1019F000823079F40AC084E160E00E94EA08089528
:101A00008EE260E00E94EA0808958AE260E00E94A7
:101A1000EA08089581E00E944A0BA0E0B0E0BC0112
:101A2000CD0124EF31E040E050E00E941F132FEF82
:101A300033E040E050E00E945D13822F932F089521
:101A40000E942A0B0895813049F0813018F08230CD
:101A500061F408C080E20E944D0A089585E20E9468
:101A60004D0A08958BE20E944D0A08958130C9F015
:101A7000813020F0823009F039C026C080E261E078
:101A80000E947F0924EC39E040E951E0CA01019746
:101A9000F1F721503040D1F780E260E00E947F09E9
:101AA000089585E261E00E947F0924EC39E040E975
:101AB00051E0CA010197F1F721503040D1F785E29A
:101AC00060E00E947F0908958BE261E00E947F0937
:101AD00024EC39E040E951E0CA010197F1F72150C7
:101AE0003040D1F78BE260E00E947F090895813099
:101AF00051F0813018F0823079F40AC080E260E061
:101B00000E947F09089585E260E00E947F090895A0
:101B10008BE260E00E947F090895813051F08130AE
:101B200018F0823079F40AC080E261E00E947F09F7
:101B3000089585E261E00E947F0908958BE261E0EB
:101B40000E947F090895813051F0813018F0823071
:101B500079F40AC080E261E00E94EA08089585E213
:101B600061E00E94EA0808958BE261E00E94EA08C1
:101B70000895EF92FF921F93182F85E160E00E9475
:101B80007F09612F62956F7061708EE00E947F09FE
:101B9000612F62956695677061708FE00E947F0982
:101BA000612F6295669566956370617080E10E9411
:101BB0007F09612F661F6627661F81E10E947F09EA
:101BC0008FE261E00E947F090F2EF0EAEF2EFFE026
:101BD000FF2EF02DC7010197F1F78FE260E00E9420
:101BE0007F09C7010197F1F7612F61708EE00E94B4
:101BF0007F09612F669561708FE00E947F09612FD8
:101C000066956695617080E10E947F09169516952C
:101C10001695117081E1612F0E947F098FE261E0CA
:101C20000E947F09C7010197F1F78FE260E00E94EF
:101C30007F0980E29EE40197F1F71F91FF90EF90FA
:101C40000895DF93CF9300D0CDB7DEB790E89983A6
:101C500090EC9A83FE01E80FF11D8181860F0E94AE
:101C6000B90D0F900F90CF91DF91089581E00E9400
:101C7000B90D0895EF92FF921F93182F85E161E04F
:101C80000E947F09612F62956F7061708EE00E94E3
:101C90007F09612F62956695677061708FE00E9481
:101CA0007F09612F6295669566956370617080E12A
:101CB0000E947F09612F661F6627661F81E10E94CF
:101CC0007F098FE261E00E947F090F2EF0EAEF2E7C
:101CD000FFE0FF2EF02DC7010197F1F78FE260E0E2
:101CE0000E947F09C7010197F1F7612F61708EE0B3
:101CF0000E947F09612F669561708FE00E947F09C5
:101D0000612F66956695617080E10E947F09169546
:101D100016951695117081E1612F0E947F098FE25F
:101D200061E00E947F09C7010197F1F78FE260E04F
:101D30000E947F0980E29EE40197F1F71F91FF90D6
:101D4000EF900895AF92BF92CF92DF92EF92FF9201
:101D50000F93DF93CF93CDB7DEB72C970FB6F894E0
:101D6000DEBF0FBECDBF6B017C0199235CF4F09404
:101D7000E094D094C094C11CD11CE11CF11C8DE2F4
:101D80000E943A0EFE0131968AE0DF011D928A958B
:101D9000E9F700E05F01802F992787FD9095F50115
:101DA000E80FF91FFC87EB87C701B6012AE030E096
:101DB00040E050E00E947F13AB85BC856C93C70167
:101DC000B6012AE030E040E050E00E947F13822F0D
:101DD000932FA42FB52F6C017D010F5FC114D10487
:101DE000E104F104C1F6101694F47E010894E11C9C
:101DF000F11C0150802F992787FD9095F701E80F7E
:101E0000F91F8081805D0E943A0E101694F32C9683
:101E10000FB6F894DEBF0FBECDBFCF91DF910F910B
:101E2000FF90EF90DF90CF90BF90AF9008951F93F9
:101E3000CF93DF93EC018881882351F010E00E945A
:101E40003A0E1F5FFE01E10FF11D80818823B9F773
:101E5000DF91CF911F9108958EE061E00E94EA0822
:101E60008FE061E00E94EA0880E161E00E94EA08F8
:101E700081E161E00E94EA0885E161E00E94EA08F0
:101E800086E161E00E94EA088FE261E00E94EA08D0
:101E900086E160E00E947F0983E30E94B90D82E33E
:101EA0000E94B90D88E20E94B90D8CE00E94B90D24
:101EB00082E00E94B90D81E00E94B90D08956F92F1
:101EC0007F928F929F92AF92BF92CF92DF92EF92CA
:101ED000FF920F931F93DF93CF93CDB7DEB7609739
:101EE0000FB6F894DEBF0FBECDBFDE011196E9E25A
:101EF000F2E080E101900D928150E1F70F2EF0E3C6
:101F00009F2EF02DCC24DD240F2EF8E18F2EF02D06
:101F100000E911E080EB94E0B82EA92E3E01089470
:101F2000611C711C0F2EF1E2EF2EF02DEC0C8E2DAA
:101F300060E00E947F09F82C8F2D0E94140A8823EC
:101F4000F1F48B2D9A2DF8013197F1F70197D9F71C
:101F50008F2D0E94140A882391F48F2D0E94140A59
:101F60008823D9F3C601880F991F880F991FF301A1
:101F7000E80FF91FEF0DF11D7897908004C0F394DE
:101F80008CE1F816C9F68E2D61E00E947F09089455
:101F9000C11CD11C84E0C816D10421F6892D60969D
:101FA0000FB6F894DEBF0FBECDBFCF91DF911F916A
:101FB0000F91FF90EF90DF90CF90BF90AF909F90E8
:101FC0008F907F906F90089581E261E00E94EA080F
:101FD00082E261E00E94EA0883E261E00E94EA088E
:101FE00084E261E00E94EA0881E261E00E947F09E8
:101FF00082E261E00E947F0983E261E00E947F0942
:1020000084E261E00E947F0988E160E00E94EA08C2
:1020100089E160E00E94EA088AE160E00E94EA0843
:102020008BE160E00E94EA0888E161E00E94950A85
:1020300089E161E00E94950A8AE161E00E94950AC7
:102040008BE161E00E94950A089581E00E94670794
:10205000089581E00E946407089590E0A0E0B0E058
:10206000BC01CD010E944904AB01BC0181E00E948A
:1020700022070895882319F0813091F409C083E282
:1020800060E00E947F0984E261E00E947F09089578
:1020900084E260E00E947F0983E261E00E947F09A0
:1020A000089581E00E946F0783E261E00E94EA08E0
:1020B00084E261E00E94EA0808950F931F93182FAD
:1020C000062F0E94D2071065812F0E94F907802FEA
:1020D0000E9413080E94ED07812F0E9404080E94AD
:1020E0003608182F0E94E407812F1F910F91089541
:1020F000FF920F931F93182F062FF42E0E94D207E2
:10210000812F80650E94F907802F0E9413088F2D70
:102110000E9413080E94E4071F910F91FF900895F9
:102120000E94CA0708959F92AF92BF92CF92DF920A
:10213000EF92FF920F931F93F82E062F80E190E00D
:1021400070E00E944A13262F6F9DC001112464E69F
:1021500070E00E944A13162FB62E662319F0E22E65
:10216000E61A89F50E94360E80E690E00E94170F6D
:1021700081E060E00E94210E81E790E00E94170F4D
:1021800020E23EE440E951E0CA010197F1F7215015
:102190003040D1F70E94360E81E890E00E94170F80
:1021A00081E060E00E94210E81E790E00E94170F1D
:1021B00020E23EE440E951E0CA010197F1F72150E5
:1021C0003040D1F767C00E94360E8DE890E00E9443
:1021D000170F28E93AE340E951E0CA010197F1F706
:1021E00021503040D1F70E94360E8EE990E00E94D7
:1021F000170F6F2D70E080E090E00E94A20E85E244
:102200000E943A0E28E93AE340E951E0CA010197F9
:10221000F1F721503040D1F70E94360E002391F1A2
:10222000A12E812F8F5F982E9E0CD02ECC24FF24C0
:1022300026C08F2D602F0E94210E8FE50E943A0E3E
:102240000F5F1F5F1B15A8F30A2D1F2D81E0602F64
:102250000E94210E112321F48CE40E943A0E03C047
:102260008FE50E943A0E0F5F1F5F1E1578F38CE713
:102270000E943A0EDA94A90CDD2021F0C90C0C2D35
:102280001F2DD7CF8AE20E94140A8130D9F780E04F
:102290000E9467071F910F91FF90EF90DF90CF9002
:1022A000BF90AF909F900895EF92FF920F931F936E
:1022B00085E261E00E947F090E94360E8CEA90E080
:1022C0000E94170F0E945F0F0F2EF0EDFF2EF02DD2
:1022D000F80EC1F36F2D70E080E090E00E94A20E36
:1022E00081E060E00E94210E8AEB90E00E94170FCF
:1022F0000E945F0F082F0053D9F3E02E602F70E08B
:1023000080E090E00E94A20E0E945F0F182F8033A1
:10231000D9F3833489F0682F70E0605370408827C8
:1023200077FD8095982F0E94A20E8AE0E89EC0015A
:1023300011248053082F010F0E945F0F8334E1F7AF
:10234000602F70E080E090E00E944904AB01BC0186
:1023500080E00E94220780E00E946407802F6F2D9A
:102360000E94931085E260E00E947F091F910F9107
:10237000FF90EF9008958CE061E00E947F0980E07B
:1023800040E050E060E272E40E94220780E00E9498
:10239000640788E262E00E9493108CE060E00E9493
:1023A0007F090895EF92FF920F931F93CF93DF93CE
:1023B0008BE061E00E947F090E942A0B80E00E946E
:1023C0004A0BEC010E94360E86EC90E00E94170F3B
:1023D000BE0180E090E00E94A20E20E23EE440E9CF
:1023E00051E0CA010197F1F721503040D1F7BE0109
:1023F00080E090E00E94490420E030E040E85AE3A9
:102400000E941F0220E030E048EC52E40E941F02CC
:102410007B018C0180E0B801A7010E94220780E0C7
:102420000E946407C801B7010E944900DC01CB018A
:1024300062E00E9493108BE060E00E947F09DF91D0
:10244000CF911F910F91FF90EF9008950F931F93DD
:1024500081E00E94D8060E94DF06082F28EB3BE0AF
:1024600040E951E0CA010197F1F721503040D1F71E
:1024700082E00E94D8060E94DF06182F0E94360EC6
:1024800081ED90E00E94170F612F70E080E090E0F6
:102490000E94A20E20E23EE440E951E0CA01019709
:1024A000F1F721503040D1F7802F612F0E94931017
:1024B00083E00E94D8061F910F9108952F923F92BA
:1024C0004F925F926F927F928F929F92AF92BF9244
:1024D000CF92DF92EF92FF920F931F93CF93DF93F0
:1024E00080E00E946F070E94C8060E942A0B0E948B
:1024F0002C0F0E94E40F8BE061E00E94EA088CE060
:1025000061E00E94EA0885E261E00E94EA088AE24E
:1025100060E00E94EA08EE24FF2487010F2EFFED01
:102520004F2EF0E05F2EF02D0F2EF0E2CF2EFEE4C6
:10253000DF2EF02DC0E9D1E00F2EF7EEAF2EF0E048
:10254000BF2EF02D0F2EF7EF8F2EF0E09F2EF02DE7
:102550000F2EF8E06F2EF1E07F2EF02D0F2EF9E117
:102560002F2EF1E03F2EF02D0E94360EE114F104E3
:102570000105110561F4C2010E94170F9601CE01F9
:102580000197F1F721503040D1F70E94360EC50176
:102590000E94170F9601CE010197F1F721503040AC
:1025A000D1F70E94360EC4010E94170F81E060E04F
:1025B0000E94210EC3010E94170F0E945F0F8053DB
:1025C000E1F3823091F0833018F4813031F505C0A9
:1025D000833099F0843009F518C00E94BB1108942B
:1025E000E11CF11C011D111DBFCF0E942612089491
:1025F000E11CF11C011D111DB7CF0E94D2110894DE
:10260000E11CF11C011D111DAFCF0E945411089453
:10261000E11CF11C011D111DA7CF0E94360E80E0A8
:1026200066E00E94210EC1010E94170F20E137E2EF
:10263000CE010197F1F721503040D1F795CF629F3D
:10264000D001739FF001829FE00DF11D649FE00DAA
:10265000F11D929FF00D839FF00D749FF00D659F0B
:10266000F00D9927729FB00DE11DF91F639FB00D0A
:10267000E11DF91FBD01CF0111240895991B79E0D7
:1026800004C0991F961708F0961B881F7A95C9F702
:102690008095089597FB092E07260AD077FD04D070
:1026A00049D006D000201AF4709561957F4F0895A7
:1026B000F6F7909581959F4F0895A1E21A2EAA1BD7
:1026C000BB1BFD010DC0AA1FBB1FEE1FFF1FA217E2
:1026D000B307E407F50720F0A21BB30BE40BF50BDF
:1026E000661F771F881F991F1A9469F76095709568
:1026F000809590959B01AC01BD01CF01089597FB9A
:10270000092E05260ED057FD04D0D7DF0AD0001CB5
:1027100038F450954095309521953F4F4F4F5F4F7E
:102720000895F6F790958095709561957F4F8F4F3E
:102730009F4F0895AA1BBB1B51E107C0AA1FBB1FD7
:10274000A617B70710F0A61BB70B881F991F5A953D
:10275000A9F780959095BC01CD0108952F923F92E5
:102760004F925F926F927F928F929F92AF92BF92A1
:10277000CF92DF92EF92FF920F931F93CF93DF934D
:10278000CDB7DEB7CA1BDB0B0FB6F894DEBF0FBEAA
:10279000CDBF09942A88398848885F846E847D84F7
:1027A0008C849B84AA84B984C884DF80EE80FD80F9
:1027B0000C811B81AA81B981CE0FD11D0FB6F8946F
:0E27C000DEBF0FBECDBFED010895F894FFCF30
:1027CE00496E76616C6964207265717569726564B3
:1027DE00006E756D626572206F6620776176657327
:1027EE0000456E746572206C6F7765720046726577
:1027FE007175616E63793A3136204D485A004475D1
:10280E007479206379636C65203A20004E656564A7
:10281E0065642077617665733A0044757479206338
:10282E0079636C653A0052656164696E67203A207F
:10283E00004E6F2E206F662077617665733A0057D3
:10284E00656C636F6D650043686F6F7365207468A8
:10285E0065206D6F646500312D4D792D4D4320201F
:10286E00322D45782D4D4300332D506F74656E20FB
:10287E00342D4B657970616400496E76616C6964C4
:10288E00000000000000000000000102020303032C
:10289E0003040404040404040405050505050505E4
:1028AE0005050505050505050506060606060606C3
:1028BE0006060606060606060606060606060606AA
:1028CE000606060606060606060707070707070793
:1028DE00070707070707070707070707070707077A
:1028EE00070707070707070707070707070707076A
:1028FE00070707070707070707070707070707075A
:10290E000707070707070707070808080808080842
:10291E000808080808080808080808080808080829
:10292E000808080808080808080808080808080819
:10293E000808080808080808080808080808080809
:10294E0008080808080808080808080808080808F9
:10295E0008080808080808080808080808080808E9
:10296E0008080808080808080808080808080808D9
:10297E0008080808080808080808080808080808C9
:10298E000808080808080808083738392B3435367F
:0A299E002D3132332A43303D2F0063
:00000001FF
